{
  "contractName": "PessoaContract",
  "abi": [
    {
      "inputs": [],
      "stateMutability": "nonpayable",
      "type": "constructor"
    },
    {
      "anonymous": false,
      "inputs": [
        {
          "indexed": false,
          "internalType": "address",
          "name": "carteira",
          "type": "address"
        },
        {
          "indexed": false,
          "internalType": "string",
          "name": "nome",
          "type": "string"
        }
      ],
      "name": "PessoaAtualizada",
      "type": "event"
    },
    {
      "anonymous": false,
      "inputs": [
        {
          "indexed": false,
          "internalType": "address",
          "name": "carteira",
          "type": "address"
        },
        {
          "indexed": false,
          "internalType": "string",
          "name": "nome",
          "type": "string"
        }
      ],
      "name": "PessoaCadastrada",
      "type": "event"
    },
    {
      "anonymous": false,
      "inputs": [
        {
          "indexed": false,
          "internalType": "address",
          "name": "carteira",
          "type": "address"
        },
        {
          "indexed": false,
          "internalType": "string",
          "name": "nome",
          "type": "string"
        }
      ],
      "name": "PessoaInativada",
      "type": "event"
    },
    {
      "inputs": [],
      "name": "owner",
      "outputs": [
        {
          "internalType": "address",
          "name": "",
          "type": "address"
        }
      ],
      "stateMutability": "view",
      "type": "function",
      "constant": true
    },
    {
      "inputs": [
        {
          "internalType": "string",
          "name": "_nome",
          "type": "string"
        },
        {
          "internalType": "uint8",
          "name": "_tipo",
          "type": "uint8"
        }
      ],
      "name": "cadastrar",
      "outputs": [],
      "stateMutability": "nonpayable",
      "type": "function"
    },
    {
      "inputs": [],
      "name": "consultar",
      "outputs": [
        {
          "internalType": "string",
          "name": "",
          "type": "string"
        },
        {
          "internalType": "bool",
          "name": "",
          "type": "bool"
        },
        {
          "internalType": "uint8",
          "name": "",
          "type": "uint8"
        },
        {
          "internalType": "uint256",
          "name": "",
          "type": "uint256"
        },
        {
          "internalType": "uint256",
          "name": "",
          "type": "uint256"
        },
        {
          "internalType": "uint256",
          "name": "",
          "type": "uint256"
        }
      ],
      "stateMutability": "view",
      "type": "function",
      "constant": true
    },
    {
      "inputs": [],
      "name": "inativar",
      "outputs": [],
      "stateMutability": "nonpayable",
      "type": "function"
    },
    {
      "inputs": [],
      "name": "ativar",
      "outputs": [],
      "stateMutability": "nonpayable",
      "type": "function"
    }
  ],
  "bytecode": "0x608060405234801561001057600080fd5b5033600160006101000a81548173ffffffffffffffffffffffffffffffffffffffff021916908373ffffffffffffffffffffffffffffffffffffffff160217905550611459806100616000396000f3fe608060405234801561001057600080fd5b50600436106100575760003560e01c80632eebda8d1461005c57806370f05f9714610066578063761ec3841461008957806379b0ea2d146100935780638da5cb5b146100af575b600080fd5b6100646100cd565b005b61006e610364565b60405161008096959493929190610b13565b60405180910390f35b610091610565565b005b6100ad60048036038101906100a89190610cf0565b6107fc565b005b6100b7610a0d565b6040516100c49190610d8d565b60405180910390f35b60008060003373ffffffffffffffffffffffffffffffffffffffff1673ffffffffffffffffffffffffffffffffffffffff168152602001908152602001600020600001805461011b90610dd7565b90501161015d576040517f08c379a000000000000000000000000000000000000000000000000000000000815260040161015490610e54565b60405180910390fd5b600015156000803373ffffffffffffffffffffffffffffffffffffffff1673ffffffffffffffffffffffffffffffffffffffff16815260200190815260200160002060010160009054906101000a900460ff161515146101f2576040517f08c379a00000000000000000000000000000000000000000000000000000000081526004016101e990610ec0565b60405180910390fd5b60016000803373ffffffffffffffffffffffffffffffffffffffff1673ffffffffffffffffffffffffffffffffffffffff16815260200190815260200160002060010160006101000a81548160ff0219169083151502179055506000803373ffffffffffffffffffffffffffffffffffffffff1673ffffffffffffffffffffffffffffffffffffffff168152602001908152602001600020600401600081548092919061029e90610f0f565b9190505550426000803373ffffffffffffffffffffffffffffffffffffffff1673ffffffffffffffffffffffffffffffffffffffff168152602001908152602001600020600301819055507f3416192aac6c09de0bdfb51560719e30efc6cc40ff0e667de351d32a8a67dc90336000803373ffffffffffffffffffffffffffffffffffffffff1673ffffffffffffffffffffffffffffffffffffffff16815260200190815260200160002060000160405161035a929190610ff0565b60405180910390a1565b60606000806000806000806000803373ffffffffffffffffffffffffffffffffffffffff1673ffffffffffffffffffffffffffffffffffffffff16815260200190815260200160002060000180546103bb90610dd7565b9050116103fd576040517f08c379a00000000000000000000000000000000000000000000000000000000081526004016103f490610e54565b60405180910390fd5b60008060003373ffffffffffffffffffffffffffffffffffffffff1673ffffffffffffffffffffffffffffffffffffffff1681526020019081526020016000206040518060c001604052908160008201805461045890610dd7565b80601f016020809104026020016040519081016040528092919081815260200182805461048490610dd7565b80156104d15780601f106104a6576101008083540402835291602001916104d1565b820191906000526020600020905b8154815290600101906020018083116104b457829003601f168201915b505050505081526020016001820160009054906101000a900460ff161515151581526020016001820160019054906101000a900460ff1660ff1660ff16815260200160028201548152602001600382015481526020016004820154815250509050806000015181602001518260400151836060015184608001518560a0015196509650965096509650965050909192939495565b60008060003373ffffffffffffffffffffffffffffffffffffffff1673ffffffffffffffffffffffffffffffffffffffff16815260200190815260200160002060000180546105b390610dd7565b9050116105f5576040517f08c379a00000000000000000000000000000000000000000000000000000000081526004016105ec90610e54565b60405180910390fd5b600115156000803373ffffffffffffffffffffffffffffffffffffffff1673ffffffffffffffffffffffffffffffffffffffff16815260200190815260200160002060010160009054906101000a900460ff1615151461068a576040517f08c379a00000000000000000000000000000000000000000000000000000000081526004016106819061106c565b60405180910390fd5b60008060003373ffffffffffffffffffffffffffffffffffffffff1673ffffffffffffffffffffffffffffffffffffffff16815260200190815260200160002060010160006101000a81548160ff0219169083151502179055506000803373ffffffffffffffffffffffffffffffffffffffff1673ffffffffffffffffffffffffffffffffffffffff168152602001908152602001600020600401600081548092919061073690610f0f565b9190505550426000803373ffffffffffffffffffffffffffffffffffffffff1673ffffffffffffffffffffffffffffffffffffffff168152602001908152602001600020600301819055507ffca770115f18ea6ffe78abf08e10bd0be85118260e568d208133b544f4d010d2336000803373ffffffffffffffffffffffffffffffffffffffff1673ffffffffffffffffffffffffffffffffffffffff1681526020019081526020016000206000016040516107f2929190610ff0565b60405180910390a1565b60008060003373ffffffffffffffffffffffffffffffffffffffff1673ffffffffffffffffffffffffffffffffffffffff168152602001908152602001600020600001805461084a90610dd7565b90501461088c576040517f08c379a0000000000000000000000000000000000000000000000000000000008152600401610883906110fe565b60405180910390fd5b60018160ff1614806108a1575060028160ff16145b6108e0576040517f08c379a00000000000000000000000000000000000000000000000000000000081526004016108d79061116a565b60405180910390fd5b60006040518060c001604052808481526020016001151581526020018360ff16815260200142815260200142815260200160018152509050806000803373ffffffffffffffffffffffffffffffffffffffff1673ffffffffffffffffffffffffffffffffffffffff168152602001908152602001600020600082015181600001908161096c9190611321565b5060208201518160010160006101000a81548160ff02191690831515021790555060408201518160010160016101000a81548160ff021916908360ff160217905550606082015181600201556080820151816003015560a082015181600401559050507fc9438ed679c3b5c255c25bc4a335e9c04337e1654e770c6367431a714b56ba053384604051610a009291906113f3565b60405180910390a1505050565b600160009054906101000a900473ffffffffffffffffffffffffffffffffffffffff1681565b600081519050919050565b600082825260208201905092915050565b60005b83811015610a6d578082015181840152602081019050610a52565b60008484015250505050565b6000601f19601f8301169050919050565b6000610a9582610a33565b610a9f8185610a3e565b9350610aaf818560208601610a4f565b610ab881610a79565b840191505092915050565b60008115159050919050565b610ad881610ac3565b82525050565b600060ff82169050919050565b610af481610ade565b82525050565b6000819050919050565b610b0d81610afa565b82525050565b600060c0820190508181036000830152610b2d8189610a8a565b9050610b3c6020830188610acf565b610b496040830187610aeb565b610b566060830186610b04565b610b636080830185610b04565b610b7060a0830184610b04565b979650505050505050565b6000604051905090565b600080fd5b600080fd5b600080fd5b600080fd5b7f4e487b7100000000000000000000000000000000000000000000000000000000600052604160045260246000fd5b610bd182610a79565b810181811067ffffffffffffffff82111715610bf057610bef610b99565b5b80604052505050565b6000610c03610b7b565b9050610c0f8282610bc8565b919050565b600067ffffffffffffffff821115610c2f57610c2e610b99565b5b610c3882610a79565b9050602081019050919050565b82818337600083830152505050565b6000610c67610c6284610c14565b610bf9565b905082815260208101848484011115610c8357610c82610b94565b5b610c8e848285610c45565b509392505050565b600082601f830112610cab57610caa610b8f565b5b8135610cbb848260208601610c54565b91505092915050565b610ccd81610ade565b8114610cd857600080fd5b50565b600081359050610cea81610cc4565b92915050565b60008060408385031215610d0757610d06610b85565b5b600083013567ffffffffffffffff811115610d2557610d24610b8a565b5b610d3185828601610c96565b9250506020610d4285828601610cdb565b9150509250929050565b600073ffffffffffffffffffffffffffffffffffffffff82169050919050565b6000610d7782610d4c565b9050919050565b610d8781610d6c565b82525050565b6000602082019050610da26000830184610d7e565b92915050565b7f4e487b7100000000000000000000000000000000000000000000000000000000600052602260045260246000fd5b60006002820490506001821680610def57607f821691505b602082108103610e0257610e01610da8565b5b50919050565b7f526567697374726f206e616f20656e636f6e747261646f2e0000000000000000600082015250565b6000610e3e601883610a3e565b9150610e4982610e08565b602082019050919050565b60006020820190508181036000830152610e6d81610e31565b9050919050565b7f506573736f61206a6120657374612061746976612e0000000000000000000000600082015250565b6000610eaa601583610a3e565b9150610eb582610e74565b602082019050919050565b60006020820190508181036000830152610ed981610e9d565b9050919050565b7f4e487b7100000000000000000000000000000000000000000000000000000000600052601160045260246000fd5b6000610f1a82610afa565b91507fffffffffffffffffffffffffffffffffffffffffffffffffffffffffffffffff8203610f4c57610f4b610ee0565b5b600182019050919050565b60008190508160005260206000209050919050565b60008154610f7981610dd7565b610f838186610a3e565b94506001821660008114610f9e5760018114610fb457610fe7565b60ff198316865281151560200286019350610fe7565b610fbd85610f57565b60005b83811015610fdf57815481890152600182019150602081019050610fc0565b808801955050505b50505092915050565b60006040820190506110056000830185610d7e565b81810360208301526110178184610f6c565b90509392505050565b7f506573736f61206a61206573746120696e61746976612e000000000000000000600082015250565b6000611056601783610a3e565b915061106182611020565b602082019050919050565b6000602082019050818103600083015261108581611049565b9050919050565b7f456e64657265636f206465206361727465697261206a6120726567697374726160008201527f646f2e0000000000000000000000000000000000000000000000000000000000602082015250565b60006110e8602383610a3e565b91506110f38261108c565b604082019050919050565b60006020820190508181036000830152611117816110db565b9050919050565b7f5469706f20646520706573736f6120696e636f727265746f2e00000000000000600082015250565b6000611154601983610a3e565b915061115f8261111e565b602082019050919050565b6000602082019050818103600083015261118381611147565b9050919050565b60006020601f8301049050919050565b600082821b905092915050565b6000600883026111d77fffffffffffffffffffffffffffffffffffffffffffffffffffffffffffffffff8261119a565b6111e1868361119a565b95508019841693508086168417925050509392505050565b6000819050919050565b600061121e61121961121484610afa565b6111f9565b610afa565b9050919050565b6000819050919050565b61123883611203565b61124c61124482611225565b8484546111a7565b825550505050565b600090565b611261611254565b61126c81848461122f565b505050565b5b8181101561129057611285600082611259565b600181019050611272565b5050565b601f8211156112d5576112a681610f57565b6112af8461118a565b810160208510156112be578190505b6112d26112ca8561118a565b830182611271565b50505b505050565b600082821c905092915050565b60006112f8600019846008026112da565b1980831691505092915050565b600061131183836112e7565b9150826002028217905092915050565b61132a82610a33565b67ffffffffffffffff81111561134357611342610b99565b5b61134d8254610dd7565b611358828285611294565b600060209050601f83116001811461138b5760008415611379578287015190505b6113838582611305565b8655506113eb565b601f19841661139986610f57565b60005b828110156113c15784890151825560018201915060208501945060208101905061139c565b868310156113de57848901516113da601f8916826112e7565b8355505b6001600288020188555050505b505050505050565b60006040820190506114086000830185610d7e565b818103602083015261141a8184610a8a565b9050939250505056fea26469706673582212206ded099d6e6aa305cde3421ae373c16ebdda44b45aa6a8186af3345091c7f9c064736f6c63430008130033",
  "immutableReferences": {},
  "source": "// SPDX-License-Identifier: GPL-3.0\n\npragma solidity >=0.4.22 <0.9.0;\n\ncontract PessoaContract {\n    struct Pessoa {\n        string nome;\n        bool status;\n        uint8 tipo;\n        uint dataCadastro;\n        uint dataModificacao;\n        uint numeroVersao;\n    }\n\n    mapping(address => Pessoa) private pessoas;\n    address public owner;\n    \n    event PessoaCadastrada(address carteira, string nome);\n    event PessoaAtualizada(address carteira, string nome);\n    event PessoaInativada(address carteira, string nome);\n\n    constructor() {\n        owner = msg.sender; // adicionado o construtor para setar o owner\n    }\n\n    function cadastrar(\n        string memory _nome,\n        uint8 _tipo\n    ) public {\n        require(bytes(pessoas[msg.sender].nome).length == 0, \"Endereco de carteira ja registrado.\");\n        \n        require(_tipo == 1 || _tipo == 2 , \"Tipo de pessoa incorreto.\");\n\n        Pessoa memory pessoa = Pessoa(\n            _nome,\n            true,\n            _tipo,\n            block.timestamp,\n            block.timestamp,\n            1\n        );\n\n        pessoas[msg.sender] = pessoa;\n\n        emit PessoaCadastrada(msg.sender, _nome);\n    }\n\n    function consultar() public view returns (\n        string memory,\n        bool,\n        uint8,\n        uint,\n        uint,\n        uint\n    ) {\n        require(bytes(pessoas[msg.sender].nome).length > 0, \"Registro nao encontrado.\");\n\n        Pessoa memory pessoa = pessoas[msg.sender];\n        \n        return (pessoa.nome, pessoa.status, pessoa.tipo, pessoa.dataCadastro, pessoa.dataModificacao, pessoa.numeroVersao);\n    }\n\n    function inativar() public {\n        require(bytes(pessoas[msg.sender].nome).length > 0, \"Registro nao encontrado.\");\n        require(pessoas[msg.sender].status == true, \"Pessoa ja esta inativa.\");\n        \n        pessoas[msg.sender].status = false;\n        pessoas[msg.sender].numeroVersao++; // incrementa a verso aps a inativao\n        pessoas[msg.sender].dataModificacao = block.timestamp;\n        \n        emit PessoaInativada(msg.sender, pessoas[msg.sender].nome);\n    }\n\n    function ativar() public {\n        require(bytes(pessoas[msg.sender].nome).length > 0, \"Registro nao encontrado.\");\n        require(pessoas[msg.sender].status == false, \"Pessoa ja esta ativa.\");\n        \n        pessoas[msg.sender].status = true;\n        pessoas[msg.sender].numeroVersao++; // incrementa a verso aps a inativao\n        pessoas[msg.sender].dataModificacao = block.timestamp;\n        \n        emit PessoaAtualizada(msg.sender, pessoas[msg.sender].nome);\n    }\n\n}",
  "sourcePath": "/opt/www/oviniciusfeitosa/study.web3/react/exemplo1/contracts/PessoaContract.sol",
  "compiler": {
    "name": "solc",
    "version": "0.8.19+commit.7dd6d404.Emscripten.clang"
  },
  "schemaVersion": "3.4.13",
  "updatedAt": "2023-04-11T05:03:01.889Z",
  "networkType": "ethereum",
  "devdoc": {
    "kind": "dev",
    "methods": {},
    "version": 1
  },
  "userdoc": {
    "kind": "user",
    "methods": {},
    "version": 1
  }
}