{
  "contractName": "PessoaContract",
  "abi": [
    {
      "inputs": [],
      "stateMutability": "nonpayable",
      "type": "constructor"
    },
    {
      "anonymous": false,
      "inputs": [
        {
          "indexed": false,
          "internalType": "address",
          "name": "carteira",
          "type": "address"
        },
        {
          "indexed": false,
          "internalType": "string",
          "name": "nome",
          "type": "string"
        }
      ],
      "name": "PessoaAtualizada",
      "type": "event"
    },
    {
      "anonymous": false,
      "inputs": [
        {
          "indexed": false,
          "internalType": "address",
          "name": "carteira",
          "type": "address"
        },
        {
          "indexed": false,
          "internalType": "string",
          "name": "nome",
          "type": "string"
        }
      ],
      "name": "PessoaCadastrada",
      "type": "event"
    },
    {
      "anonymous": false,
      "inputs": [
        {
          "indexed": false,
          "internalType": "address",
          "name": "carteira",
          "type": "address"
        },
        {
          "indexed": false,
          "internalType": "string",
          "name": "nome",
          "type": "string"
        }
      ],
      "name": "PessoaInativada",
      "type": "event"
    },
    {
      "inputs": [],
      "name": "owner",
      "outputs": [
        {
          "internalType": "address",
          "name": "",
          "type": "address"
        }
      ],
      "stateMutability": "view",
      "type": "function"
    },
    {
      "inputs": [
        {
          "internalType": "string",
          "name": "_nome",
          "type": "string"
        },
        {
          "internalType": "uint8",
          "name": "_tipo",
          "type": "uint8"
        }
      ],
      "name": "cadastrar",
      "outputs": [],
      "stateMutability": "nonpayable",
      "type": "function"
    },
    {
      "inputs": [
        {
          "internalType": "address",
          "name": "_carteira",
          "type": "address"
        }
      ],
      "name": "consultar",
      "outputs": [
        {
          "internalType": "string",
          "name": "",
          "type": "string"
        },
        {
          "internalType": "bool",
          "name": "",
          "type": "bool"
        },
        {
          "internalType": "uint8",
          "name": "",
          "type": "uint8"
        },
        {
          "internalType": "uint256",
          "name": "",
          "type": "uint256"
        },
        {
          "internalType": "uint256",
          "name": "",
          "type": "uint256"
        },
        {
          "internalType": "uint256",
          "name": "",
          "type": "uint256"
        }
      ],
      "stateMutability": "view",
      "type": "function"
    },
    {
      "inputs": [
        {
          "internalType": "address",
          "name": "_carteira",
          "type": "address"
        }
      ],
      "name": "inativar",
      "outputs": [],
      "stateMutability": "nonpayable",
      "type": "function"
    },
    {
      "inputs": [
        {
          "internalType": "address",
          "name": "_carteira",
          "type": "address"
        }
      ],
      "name": "ativar",
      "outputs": [],
      "stateMutability": "nonpayable",
      "type": "function"
    }
  ],
  "bytecode": "0x608060405234801561001057600080fd5b5033600160006101000a81548173ffffffffffffffffffffffffffffffffffffffff021916908373ffffffffffffffffffffffffffffffffffffffff1602179055506118e7806100616000396000f3fe608060405234801561001057600080fd5b50600436106100575760003560e01c806342380da41461005c57806379b0ea2d146100785780637da8f6a51461009457806383243a94146100c95780638da5cb5b146100e5575b600080fd5b61007660048036038101906100719190610e48565b610103565b005b610092600480360381019061008d9190610ff4565b61046b565b005b6100ae60048036038101906100a99190610e48565b61071f565b6040516100c096959493929190611112565b60405180910390f35b6100e360048036038101906100de9190610e48565b610a48565b005b6100ed610db0565b6040516100fa9190611189565b60405180910390f35b600160009054906101000a900473ffffffffffffffffffffffffffffffffffffffff1673ffffffffffffffffffffffffffffffffffffffff163373ffffffffffffffffffffffffffffffffffffffff1614610193576040517f08c379a000000000000000000000000000000000000000000000000000000000815260040161018a90611216565b60405180910390fd5b600073ffffffffffffffffffffffffffffffffffffffff166000808373ffffffffffffffffffffffffffffffffffffffff1673ffffffffffffffffffffffffffffffffffffffff16815260200190815260200160002060050160009054906101000a900473ffffffffffffffffffffffffffffffffffffffff1673ffffffffffffffffffffffffffffffffffffffff1603610263576040517f08c379a000000000000000000000000000000000000000000000000000000000815260040161025a90611282565b60405180910390fd5b600015156000808373ffffffffffffffffffffffffffffffffffffffff1673ffffffffffffffffffffffffffffffffffffffff16815260200190815260200160002060010160009054906101000a900460ff161515146102f8576040517f08c379a00000000000000000000000000000000000000000000000000000000081526004016102ef906112ee565b60405180910390fd5b60016000808373ffffffffffffffffffffffffffffffffffffffff1673ffffffffffffffffffffffffffffffffffffffff16815260200190815260200160002060010160006101000a81548160ff0219169083151502179055506000808273ffffffffffffffffffffffffffffffffffffffff1673ffffffffffffffffffffffffffffffffffffffff16815260200190815260200160002060040160008154809291906103a49061133d565b9190505550426000808373ffffffffffffffffffffffffffffffffffffffff1673ffffffffffffffffffffffffffffffffffffffff168152602001908152602001600020600301819055507f3416192aac6c09de0bdfb51560719e30efc6cc40ff0e667de351d32a8a67dc90816000808473ffffffffffffffffffffffffffffffffffffffff1673ffffffffffffffffffffffffffffffffffffffff16815260200190815260200160002060000160405161046092919061147e565b60405180910390a150565b600073ffffffffffffffffffffffffffffffffffffffff166000803373ffffffffffffffffffffffffffffffffffffffff1673ffffffffffffffffffffffffffffffffffffffff16815260200190815260200160002060050160009054906101000a900473ffffffffffffffffffffffffffffffffffffffff1673ffffffffffffffffffffffffffffffffffffffff161461053b576040517f08c379a000000000000000000000000000000000000000000000000000000000815260040161053290611520565b60405180910390fd5b60018160ff161480610550575060028160ff16145b61058f576040517f08c379a00000000000000000000000000000000000000000000000000000000081526004016105869061158c565b60405180910390fd5b60006040518060e001604052808481526020016001151581526020018360ff168152602001428152602001428152602001600181526020013373ffffffffffffffffffffffffffffffffffffffff168152509050806000803373ffffffffffffffffffffffffffffffffffffffff1673ffffffffffffffffffffffffffffffffffffffff16815260200190815260200160002060008201518160000190816106379190611743565b5060208201518160010160006101000a81548160ff02191690831515021790555060408201518160010160016101000a81548160ff021916908360ff160217905550606082015181600201556080820151816003015560a0820151816004015560c08201518160050160006101000a81548173ffffffffffffffffffffffffffffffffffffffff021916908373ffffffffffffffffffffffffffffffffffffffff1602179055509050507fc9438ed679c3b5c255c25bc4a335e9c04337e1654e770c6367431a714b56ba053384604051610712929190611815565b60405180910390a1505050565b60606000806000806000600160009054906101000a900473ffffffffffffffffffffffffffffffffffffffff1673ffffffffffffffffffffffffffffffffffffffff163373ffffffffffffffffffffffffffffffffffffffff16146107b9576040517f08c379a00000000000000000000000000000000000000000000000000000000081526004016107b090611216565b60405180910390fd5b600073ffffffffffffffffffffffffffffffffffffffff166000808973ffffffffffffffffffffffffffffffffffffffff1673ffffffffffffffffffffffffffffffffffffffff16815260200190815260200160002060050160009054906101000a900473ffffffffffffffffffffffffffffffffffffffff1673ffffffffffffffffffffffffffffffffffffffff1603610889576040517f08c379a000000000000000000000000000000000000000000000000000000000815260040161088090611282565b60405180910390fd5b60008060008973ffffffffffffffffffffffffffffffffffffffff1673ffffffffffffffffffffffffffffffffffffffff1681526020019081526020016000206040518060e00160405290816000820180546108e4906113b4565b80601f0160208091040260200160405190810160405280929190818152602001828054610910906113b4565b801561095d5780601f106109325761010080835404028352916020019161095d565b820191906000526020600020905b81548152906001019060200180831161094057829003601f168201915b505050505081526020016001820160009054906101000a900460ff161515151581526020016001820160019054906101000a900460ff1660ff1660ff1681526020016002820154815260200160038201548152602001600482015481526020016005820160009054906101000a900473ffffffffffffffffffffffffffffffffffffffff1673ffffffffffffffffffffffffffffffffffffffff1673ffffffffffffffffffffffffffffffffffffffff16815250509050806000015181602001518260400151836060015184608001518560a001519650965096509650965096505091939550919395565b600160009054906101000a900473ffffffffffffffffffffffffffffffffffffffff1673ffffffffffffffffffffffffffffffffffffffff163373ffffffffffffffffffffffffffffffffffffffff1614610ad8576040517f08c379a0000000000000000000000000000000000000000000000000000000008152600401610acf90611216565b60405180910390fd5b600073ffffffffffffffffffffffffffffffffffffffff166000808373ffffffffffffffffffffffffffffffffffffffff1673ffffffffffffffffffffffffffffffffffffffff16815260200190815260200160002060050160009054906101000a900473ffffffffffffffffffffffffffffffffffffffff1673ffffffffffffffffffffffffffffffffffffffff1603610ba8576040517f08c379a0000000000000000000000000000000000000000000000000000000008152600401610b9f90611282565b60405180910390fd5b600115156000808373ffffffffffffffffffffffffffffffffffffffff1673ffffffffffffffffffffffffffffffffffffffff16815260200190815260200160002060010160009054906101000a900460ff16151514610c3d576040517f08c379a0000000000000000000000000000000000000000000000000000000008152600401610c3490611891565b60405180910390fd5b60008060008373ffffffffffffffffffffffffffffffffffffffff1673ffffffffffffffffffffffffffffffffffffffff16815260200190815260200160002060010160006101000a81548160ff0219169083151502179055506000808273ffffffffffffffffffffffffffffffffffffffff1673ffffffffffffffffffffffffffffffffffffffff1681526020019081526020016000206004016000815480929190610ce99061133d565b9190505550426000808373ffffffffffffffffffffffffffffffffffffffff1673ffffffffffffffffffffffffffffffffffffffff168152602001908152602001600020600301819055507ffca770115f18ea6ffe78abf08e10bd0be85118260e568d208133b544f4d010d2816000808473ffffffffffffffffffffffffffffffffffffffff1673ffffffffffffffffffffffffffffffffffffffff168152602001908152602001600020600001604051610da592919061147e565b60405180910390a150565b600160009054906101000a900473ffffffffffffffffffffffffffffffffffffffff1681565b6000604051905090565b600080fd5b600080fd5b600073ffffffffffffffffffffffffffffffffffffffff82169050919050565b6000610e1582610dea565b9050919050565b610e2581610e0a565b8114610e3057600080fd5b50565b600081359050610e4281610e1c565b92915050565b600060208284031215610e5e57610e5d610de0565b5b6000610e6c84828501610e33565b91505092915050565b600080fd5b600080fd5b6000601f19601f8301169050919050565b7f4e487b7100000000000000000000000000000000000000000000000000000000600052604160045260246000fd5b610ec882610e7f565b810181811067ffffffffffffffff82111715610ee757610ee6610e90565b5b80604052505050565b6000610efa610dd6565b9050610f068282610ebf565b919050565b600067ffffffffffffffff821115610f2657610f25610e90565b5b610f2f82610e7f565b9050602081019050919050565b82818337600083830152505050565b6000610f5e610f5984610f0b565b610ef0565b905082815260208101848484011115610f7a57610f79610e7a565b5b610f85848285610f3c565b509392505050565b600082601f830112610fa257610fa1610e75565b5b8135610fb2848260208601610f4b565b91505092915050565b600060ff82169050919050565b610fd181610fbb565b8114610fdc57600080fd5b50565b600081359050610fee81610fc8565b92915050565b6000806040838503121561100b5761100a610de0565b5b600083013567ffffffffffffffff81111561102957611028610de5565b5b61103585828601610f8d565b925050602061104685828601610fdf565b9150509250929050565b600081519050919050565b600082825260208201905092915050565b60005b8381101561108a57808201518184015260208101905061106f565b60008484015250505050565b60006110a182611050565b6110ab818561105b565b93506110bb81856020860161106c565b6110c481610e7f565b840191505092915050565b60008115159050919050565b6110e4816110cf565b82525050565b6110f381610fbb565b82525050565b6000819050919050565b61110c816110f9565b82525050565b600060c082019050818103600083015261112c8189611096565b905061113b60208301886110db565b61114860408301876110ea565b6111556060830186611103565b6111626080830185611103565b61116f60a0830184611103565b979650505050505050565b61118381610e0a565b82525050565b600060208201905061119e600083018461117a565b92915050565b7f4170656e6173206f206f776e657220706f64652065786563757461722065737460008201527f612066756e63616f2e0000000000000000000000000000000000000000000000602082015250565b600061120060298361105b565b915061120b826111a4565b604082019050919050565b6000602082019050818103600083015261122f816111f3565b9050919050565b7f526567697374726f206e616f20656e636f6e747261646f2e0000000000000000600082015250565b600061126c60188361105b565b915061127782611236565b602082019050919050565b6000602082019050818103600083015261129b8161125f565b9050919050565b7f506573736f61206a6120657374612061746976612e0000000000000000000000600082015250565b60006112d860158361105b565b91506112e3826112a2565b602082019050919050565b60006020820190508181036000830152611307816112cb565b9050919050565b7f4e487b7100000000000000000000000000000000000000000000000000000000600052601160045260246000fd5b6000611348826110f9565b91507fffffffffffffffffffffffffffffffffffffffffffffffffffffffffffffffff820361137a5761137961130e565b5b600182019050919050565b7f4e487b7100000000000000000000000000000000000000000000000000000000600052602260045260246000fd5b600060028204905060018216806113cc57607f821691505b6020821081036113df576113de611385565b5b50919050565b60008190508160005260206000209050919050565b60008154611407816113b4565b611411818661105b565b9450600182166000811461142c576001811461144257611475565b60ff198316865281151560200286019350611475565b61144b856113e5565b60005b8381101561146d5781548189015260018201915060208101905061144e565b808801955050505b50505092915050565b6000604082019050611493600083018561117a565b81810360208301526114a581846113fa565b90509392505050565b7f456e64657265636f206465206361727465697261206a6120726567697374726160008201527f646f2e0000000000000000000000000000000000000000000000000000000000602082015250565b600061150a60238361105b565b9150611515826114ae565b604082019050919050565b60006020820190508181036000830152611539816114fd565b9050919050565b7f5469706f20646520706573736f6120696e636f727265746f2e00000000000000600082015250565b600061157660198361105b565b915061158182611540565b602082019050919050565b600060208201905081810360008301526115a581611569565b9050919050565b60006020601f8301049050919050565b600082821b905092915050565b6000600883026115f97fffffffffffffffffffffffffffffffffffffffffffffffffffffffffffffffff826115bc565b61160386836115bc565b95508019841693508086168417925050509392505050565b6000819050919050565b600061164061163b611636846110f9565b61161b565b6110f9565b9050919050565b6000819050919050565b61165a83611625565b61166e61166682611647565b8484546115c9565b825550505050565b600090565b611683611676565b61168e818484611651565b505050565b5b818110156116b2576116a760008261167b565b600181019050611694565b5050565b601f8211156116f7576116c8816113e5565b6116d1846115ac565b810160208510156116e0578190505b6116f46116ec856115ac565b830182611693565b50505b505050565b600082821c905092915050565b600061171a600019846008026116fc565b1980831691505092915050565b60006117338383611709565b9150826002028217905092915050565b61174c82611050565b67ffffffffffffffff81111561176557611764610e90565b5b61176f82546113b4565b61177a8282856116b6565b600060209050601f8311600181146117ad576000841561179b578287015190505b6117a58582611727565b86555061180d565b601f1984166117bb866113e5565b60005b828110156117e3578489015182556001820191506020850194506020810190506117be565b8683101561180057848901516117fc601f891682611709565b8355505b6001600288020188555050505b505050505050565b600060408201905061182a600083018561117a565b818103602083015261183c8184611096565b90509392505050565b7f506573736f61206a61206573746120696e61746976612e000000000000000000600082015250565b600061187b60178361105b565b915061188682611845565b602082019050919050565b600060208201905081810360008301526118aa8161186e565b905091905056fea26469706673582212205451cf922508d997a8e2c48c404a9dfbfc361ea1808d39fc8aea1ac2920e9d1e64736f6c63430008130033",
  "immutableReferences": {},
  "source": "// SPDX-License-Identifier: GPL-3.0\n\npragma solidity >=0.7.0 <0.9.0;\n\ncontract PessoaContract {\n\n    struct Pessoa {\n        string nome;\n        bool status;\n        uint8 tipo;\n        uint dataCadastro;\n        uint dataModificacao;\n        uint numeroVersao;\n        address carteira;\n    }\n\n    mapping(address => Pessoa) private pessoas;\n    address public owner;\n    \n    event PessoaCadastrada(address carteira, string nome);\n    event PessoaAtualizada(address carteira, string nome);\n    event PessoaInativada(address carteira, string nome);\n\n    constructor() {\n        owner = msg.sender; // adicionado o construtor para setar o owner\n    }\n\n    function cadastrar(\n        string memory _nome,\n        uint8 _tipo\n    ) public {\n        require(\n            pessoas[msg.sender].carteira == address(0),\n            \"Endereco de carteira ja registrado.\"\n        );\n        \n        require(_tipo == 1 || _tipo == 2 , \"Tipo de pessoa incorreto.\");\n\n        Pessoa memory pessoa = Pessoa(\n            _nome,\n            true,\n            _tipo,\n            block.timestamp,\n            block.timestamp,\n            1,\n            msg.sender\n        );\n\n        pessoas[msg.sender] = pessoa;\n\n        emit PessoaCadastrada(msg.sender, _nome);\n    }\n\n    function consultar(address _carteira)\n        public\n        view\n        onlyOwner // adicionado o modificador onlyOwner\n        returns (\n            string memory,\n            bool,\n            uint8,\n            uint,\n            uint,\n            uint\n        )\n    {\n        require(pessoas[_carteira].carteira != address(0), \"Registro nao encontrado.\");\n\n        Pessoa memory pessoa = pessoas[_carteira];\n        \n        return (pessoa.nome, pessoa.status, pessoa.tipo, pessoa.dataCadastro, pessoa.dataModificacao, pessoa.numeroVersao);\n    }\n\n    function inativar(address _carteira) public onlyOwner {\n        require(pessoas[_carteira].carteira != address(0), \"Registro nao encontrado.\");\n        require(pessoas[_carteira].status == true, \"Pessoa ja esta inativa.\");\n        \n        pessoas[_carteira].status = false;\n        pessoas[_carteira].numeroVersao++; // incrementa a verso aps a inativao\n        pessoas[_carteira].dataModificacao = block.timestamp;\n        \n        emit PessoaInativada(_carteira, pessoas[_carteira].nome);\n    }\n\n    function ativar(address _carteira) public onlyOwner {\n        require(pessoas[_carteira].carteira != address(0), \"Registro nao encontrado.\");\n        require(pessoas[_carteira].status == false, \"Pessoa ja esta ativa.\");\n        \n        pessoas[_carteira].status = true;\n        pessoas[_carteira].numeroVersao++; // incrementa a verso aps a inativao\n        pessoas[_carteira].dataModificacao = block.timestamp;\n        \n        emit PessoaAtualizada(_carteira, pessoas[_carteira].nome);\n    }\n    \n    modifier onlyOwner() { // adicionado o modificador onlyOwner\n        require(msg.sender == owner, \"Apenas o owner pode executar esta funcao.\");\n        _;\n    }\n}",
  "sourcePath": "/opt/www/oviniciusfeitosa/study.web3/truffle/exemplo1/contracts/PessoaFisica.sol",
  "compiler": {
    "name": "solc",
    "version": "0.8.19+commit.7dd6d404.Emscripten.clang"
  },
  "schemaVersion": "3.4.13",
  "updatedAt": "2023-04-10T02:01:02.878Z",
  "devdoc": {
    "kind": "dev",
    "methods": {},
    "version": 1
  },
  "userdoc": {
    "kind": "user",
    "methods": {},
    "version": 1
  }
}